:100000000C94C9030C940D040C940D040C940D0471
:100010000C940D040C940D040C940D040C940D041C
:100020000C940D040C940D040C9488230C945A2405
:100030000C94AA1A0C940D040C940D040C940D0449
:100040000C940D040C940D040C940D040C940D04EC
:100050000C940D040C94111B0C940D040C940D04C1
:100060000C940D040C940D040C940D040C940D04CC
:100070000C940D040C940D040C940D040C940D04BC
:100080000C940D040C940D040C940D040C940D04AC
:100090000C940D040C940D040C940D040C940D049C
:1000A0000C940D040C940D040C940D0486088C081B
:1000B0009008930897089B089F08A308A808AC0815
:1000C000B008B408B708BB08BF08C308C708CC0805
:1000D0000D100D10471047108210A41011121112AC
:1000E000EA101112911191110512111211120C1234
:1000F0009E119E119E119E119E119E119E119E1188
:100100009E119E119E119E119E119E119E119E1177
:10011000B011BE11C511CC11D611A512A512B8127D
:10012000B812AE12B812B812B812A512A512B412B3
:10013000B812B812B412BF24E624D425E624D4257C
:100140002E255125D425A725B6256572676F646FC6
:100150006E652F6665737373737469662040203013
:100160002E362E3133322D322D67376365303332E0
:10017000006572676F646F6E652F66657373737366
:10018000746966204020302E362E3133322D322DC8
:1001900067376365303332000000F0A229001E008B
:1001A0001F00200021002200010001002300240084
:1001B0002500260027000100010004001D000800A2
:1001C00015001700010001001C0018000C001200AF
:1001D00013000100E10014611662076409000A00BF
:1001E000000000000B000D000E640F621071E500AE
:1001F000E0001A001B0006001900050001000100C4
:1002000011003600330033021E02E4000100010039
:10021000E200035101510000000000000000025103
:100220000451E2000100010000004C002A002C00F3
:1002300001000100010001000100010028002B0065
:10024000E600000029003A003B003C003D003E0073
:10025000010001003F004000410042004300010056
:100260000100010001000100010001000100010086
:1002700001004B0052004400450001000100E00075
:10028000E100E20001000100000000004A0050000F
:1002900051004F004D00010001000100010001006C
:1002A000010001000100010001004E0001000100F9
:1002B0000100010001000100010001000100000037
:1002C0000000000000000100010001000100010029
:1002D0000000010001000100010001000100010017
:1002E0000100010028002B00E600000001003A0098
:1002F0003B003C003D003E00010001000100010008
:10030000010001000100010001001F0235002F0063
:100310003000240201000100010001000100010081
:1003200001000100010021023800260227023402E8
:100330000000000001000100E200E500E40001000F
:100340000100220231022F023002340001000100BC
:100350000100010001000100010001000100010095
:100360000100010001000000000000000000010089
:100370000100010001000100000001000100010076
:100380000100010001000100010001000100010065
:100390000100000001000100010001000100010056
:1003A0000100010001000100010001000100010045
:1003B0000100010001000100010001000100010035
:1003C00057005F0060006100550001000100E0007F
:1003D000E100E200010001000000000056005C00A6
:1003E0005D005E00540001000100010001000100F9
:1003F0000100010001000100620059005A005B0089
:100400006300010001000100010001000100000083
:1004100000000000000001000100010001000100D7
:1004200000000100010001000100010001000100C5
:100430000100010028002B00E6000000010001007F
:1004400001000100010001000100010001000100A4
:100450000100010001000100010001000100F000A5
:100460000100010001000100010001000100010084
:100470000100010001000100F200F100F3000100A1
:10048000000000000100F400F600F500010001008A
:100490000100010001000100010001000100010054
:1004A0000100010001000100010001000100010044
:1004B0000100010001000000000000000000010038
:1004C0000100010001000100000001000100010025
:1004D0000100010001000100010001000100010014
:1004E0000100000000000000000000002A2B28008E
:1004F00000000000000000000000000000000029D3
:10050000000000002C1E3420212224342627252E12
:10051000362D3738271E1F2021222324252633334A
:10052000362E37381F0405060708090A0B0C0D0E76
:100530000F101112131415161718191A1B1C1D2F42
:100540003130232D350405060708090A0B0C0D0E62
:100550000F101112131415161718191A1B1C1D2F22
:100560003130354C000000000000000000000000A9
:10057000000000000000000000000000000000007B
:100580000000000000010101010101000101010161
:10059000000000000000000000000000000001005A
:1005A000010001010101010101010101010101013C
:1005B000010101010101010101010101010101002C
:1005C0000000010100000000000000000000000029
:1005D000000000000000000000000000000000011A
:1005E0000101010004033000000012034500720005
:1005F00067006F0044006F006E006500000012038A
:100600004B002E0054002E0045002E0043002E000B
:1006100000000403090409026D00040100A0FA09A6
:100620000400000103010100092111010001224021
:10063000000705810308000A090401000103010203
:1006400000092111010001224D0007058203080065
:100650000A09040200010300000009211101000140
:100660002236000705830308000A0904030001037A
:10067000000000092111010001223900070584034F
:100680002000011201100100000008EDFE0DE6013E
:10069000000102030105010906A101050719E0296E
:1006A000E715002501950875018102050819012942
:1006B00005950575019102950175039101050719CD
:1006C0000029F71500250195F875018102C0050183
:1006D0000980A10185021601002603001A81002A63
:1006E0008300751095018100C0050C0901A10185E9
:1006F00003160100269C021A01002A9C027510951F
:10070000018100C005010902A1010901A10005093B
:10071000190129051500250195057501810295012D
:10072000750381010501093009311581257F950285
:100730007508810609381581257F950175088106A0
:10074000050C0A38021581257F950175088106C0C0
:10075000C005010906A101050719E029E7150025D3
:100760000195087501810295017508810105081937
:100770000129059505750191029501750391010502
:1007800007190029FF150026FF009506750881004E
:10079000C00011241FBECFEFDAE0DEBFCDBF04B62C
:1007A00003FE24C08091860290918702A091880266
:1007B000B09189028730904BA740B04BB9F41092AA
:1007C000860210928702109288021092890214BE4B
:1007D00084B7877F84BF88E10FB6F8948093600068
:1007E000109260000FBEE0E0F8E3099511E0A0E090
:1007F000B1E0E8EFFCE402C005900D92A632B1072B
:10080000D9F722E0A6E2B1E001C01D92A638B207F6
:10081000E1F70E94B4200C947A260C940000109208
:10082000B9008AE08093B800089594EA9093BC00E0
:100830009091BC0097FFFCCF9091B900987F9830C1
:1008400021F0903111F081E008958093BB0084E89D
:100850008093BC008091BC0087FFFCCF8091B900E1
:10086000887F883111F0803471F780E008950C940E
:10087000150484E98093BC008091BC0084FDFCCF0A
:1008800008958093BB0084E88093BC008091BC00F5
:1008900087FFFCCF9091B900987F81E0983209F4EE
:1008A00080E0089584E88093BC008091BC0087FFBD
:1008B000FCCF8091BB00089580B38F7080BB81B363
:1008C0008F7081BB84B1897F84B985B1897F85B9F7
:1008D0000C94F2056E98769A8AB183768AB98BB1B8
:1008E0008C698BB93E98469A24982C9A0C942706CA
:1008F0000C941D0780E885BF85BF0E945C040E94A0
:100900006A04EAE7F1E026E231E01192119280E018
:1009100090E0D901A80FB91F1C9201968E30910565
:10092000C1F7225F3F4F81E0E638F80771F70C947A
:10093000A5070E945C040E946A0410927B01109239
:100940007A0110927D0110927C0110927F01109229
:100950007E01109281011092800110928301109209
:100960008201109285011092840108959EE0899F72
:10097000A001112420E030E080E090E04A5D5E4F6D
:1009800061E070E0FA01E20FF31FA081AA2319F0E1
:10099000A150A08309C0FB01022E02C0EE0FFF1F71
:1009A0000A94E2F78E2B9F2B2F5F3F4F2E3031059D
:1009B00049F70895CF932EE0629FB001112420E003
:1009C00030E0E1E0F0E06A5D7E4FC5E0AF01022E6D
:1009D00002C0440F551F0A94E2F748235923452BC0
:1009E00021F0DB01A20FB31FCC932F5F3F4F2E30BE
:1009F000310561F7CF9108956F927F928F929F9208
:100A0000AF92BF92CF92DF92EF92FF920F931F931C
:100A1000CF93DF930E940D066AE7862E61E0962E43
:100A200010E066246394133099F028F4113051F0EB
:100A3000123059F004C0143071F0153079F0849AF6
:100A40008C980EC0859A8D980BC0869A8E9808C097
:100A5000879A8F9805C0219A299802C0229A2A98CD
:100A6000812F0E94F60500EA0A95F1F7812F0E9476
:100A7000B6047C010E9459064B9B03C0C12CD12CAB
:100A800003C050E4C52ED12C4A9B03C060E070E047
:100A900002C060E270E04C9B03C0A0E0B0E002C086
:100AA000A0E1B0E0369B03C0E0E0F0E002C0E8E087
:100AB000F0E029B1332727FD309520953095222786
:100AC000330F221F3327220F331F220F331F669B42
:100AD00003C0A12CB12C03C0D2E0AD2EB12C73B059
:100AE000E401488159817294CFE07C227624072D5D
:100AF0000170C02F00E0D02FC82BD92BCC29DD29C5
:100B0000C62BD72BCA2BDB2BCE2BDF2BC22BD32B09
:100B1000CA29DB29CE21DF21E094F094E422F522DA
:100B2000CE29DF29612FCE01842795270E94DA0480
:100B3000F401C193D1934F010E945C041F5F1630F2
:100B400009F071CF0E94B10781E0DF91CF911F9131
:100B50000F91FF90EF90DF90CF90BF90AF909F905C
:100B60008F907F906F900895E82FF0E0EE0FFF1FB9
:100B7000E658FE4F8081918108950895853008F0F0
:100B80008F5F2091860130E002C0359527958A95C8
:100B9000E2F7822F817008950F931F93CF93DF9315
:100BA0001F92CDB7DEB7182F062F809187018823BB
:100BB00091F080E40E941504811108C0812F0E94E9
:100BC0004104811103C0802F0E94410489830E9447
:100BD0003904898101C080E00F90DF91CF911F918E
:100BE0000F9108956FEF81E00C94CC058F5F61E069
:100BF00070E001C0660F8A95EAF7609581E00C9479
:100C0000CC056FEF82E00E94CC056FEF8CE00E9474
:100C1000CC056FEF81E00C94CC0580E40E941504B4
:100C200081110CC00E9439048091870181110EC08E
:100C300081E0809387010E94010606C080918701B0
:100C4000813021F4109287010C94931208950E9430
:100C50000F040C940D060F931F93CF93DF93082F6F
:100C6000EB01809187018823C9F080E40E9415047C
:100C7000182F81110FC0802F0E944104182F81115D
:100C800009C081E40E943704182F811103C00E941B
:100C9000520488830E943904812F01C080E0DF91D3
:100CA000CF911F910F91089566E871E082E10C9455
:100CB0002B06BF92CF92DF92EF92FF920F931F937A
:100CC000CF93DF930E945406CDE0D0E000E010E027
:100CD0008DE0B82EC12CD12C7601C3948B2D8C1BAA
:100CE0000E94BE05882361F0B701A6010C2E04C046
:100CF000440F551F661F771F0A94D2F7042B152B3C
:100D0000219760F7C801DF91CF911F910F91FF905C
:100D1000EF90DF90CF90BF90089584B1886684B93A
:100D200085B1877985B9209A289A559A5D9A089550
:100D300025982D9826982E9823982B982098289AB5
:100D4000259A2D9A2FEF80E792E021508040904025
:100D5000E1F700C00000269A2E9A2FEF80E792E07C
:100D6000215080409040E1F700C00000239A2B9A68
:100D70002FEF80E792E0215080409040E1F700C0E3
:100D8000000025982D982FEF80E792E021508040B9
:100D90009040E1F700C0000026982E982FEF80E7E2
:100DA00092E0215080409040E1F700C0000023987D
:100DB0002B9825982D9826982E9823982B98209834
:100DC000289A08950E948D060E9498060C941C078C
:100DD000662319F0613051F00EC0FC018281882336
:100DE00051F081E791E00E94A20705C0FC018281D9
:100DF00081110E94CE1980E090E008958F3D2CE58E
:100E0000920779F0803EECE59E0749F08E3D9C45C7
:100E100089F4FB018281882371F00E94CE1980E061
:100E20000895FB018281882331F08AE491E00E94D9
:100E3000A207F5CF81E008950895609114027091A2
:100E4000150280911602909117020E94F918209ABB
:100E5000289825982D9826982E9823982B9880FFCF
:100E600003C0259A2D9A02C025982D9881FF03C0B2
:100E7000269A2E9A02C026982E9882FF03C0239AA3
:100E80002B9A089523982B98089581E008950C9447
:100E9000FE06CF93282F30E0F901EC51FB4FC491AF
:100EA000F901EC59FA4F2491222359F081EE0E9466
:100EB0005B0E8C2F0E945B0E8C2F0E94570F81EED1
:100EC00004C08C2F0E945B0E8C2FCF910C94570F77
:100ED0000F931F93CF93DF93EC01062FFE018491B4
:100EE000882359F19E012F5F3F4F813041F4E90182
:100EF000F9011491812F0E945B0E812F0DC0823069
:100F000031F4E901F90184910E945B0E0AC083303B
:100F100031F4E901F90184910E94570F02C00E9447
:100F200049072196802F8823C9F2EFE9FFE0319726
:100F3000F1F700C000008150F6CFDF91CF911F91F3
:100F40000F91089560E00C9468070E944C1981117C
:100F500006C00E945719811102C00E94CE190C943C
:100F6000E2060C947804282F2F7041F0822F90E035
:100F70002A3010F44D9608950697089587E290E080
:100F8000089508950C94C1070C94C20708950E9417
:100F900093120E94C6072FEF84E39CE0215080400B
:100FA0009040E1F700C000000C94371BFF920F93B4
:100FB0001F93CF93DF938C01FC01C081D18180917D
:100FC000A401811113C08281882349F0CE010E94BF
:100FD000EB17F82E682FCE010E94911704C0CE01A6
:100FE0000E94BF17F82EBE018F2D04C0CE010E94B3
:100FF000EB17BE010E948509EC01B8010E9447076A
:10100000882309F47AC1B801CE010E94E50B882338
:1010100009F473C1C631FCE5DF0729F50E94BD184C
:10102000382FF80122818091000190910101222343
:1010300071F03A7A21E009F420E02093880122231C
:1010400011F065E301C069E20E94371A09C02091DE
:101050008801222311F065E301C069E20E94421A6F
:101060000E948A184AC1C7318CE5D80708F0A6C08B
:10107000C130ECE5DE0759F4F8018281882309F4D8
:101080003CC18091410281608093410236C1C230EF
:10109000FCE5DF0758F4C115DC4561F4F8018281F5
:1010A000882309F42AC10E94C70727C1C531ECE58E
:1010B000DE0768F081E080938D0180938E01C80186
:1010C000DF91CF911F910F91FF900C944507F8018C
:1010D00082818823A1F30E944C19811102C00E94D1
:1010E000CE190E94731990E0909378028093770252
:1010F000FE01E350FC45E231F10520F4EA5AFF4FCE
:101100000C941E2680917702816003C08091770243
:101110008260809377024BC0809177028460F9CF20
:101120008091770213C0809177028061F2CF809125
:1011300077028062EECF809177028064EACF80915F
:1011400077028068E6CF8091770284608860E1CF83
:10115000809177028E7FDDCF809177028D7FD9CF0E
:10116000809177028B7FD5CF8091770213C08091D9
:1011700077028F7ECECF809177028F7DCACF80910C
:1011800077028F7BC6CF809177028F77C2CF809115
:1011900077028B7F877FBDCF9091770297FB88275F
:1011A00080F921E0822780FB97F990937702809164
:1011B00077020E9477190E9493129FC0C83DFCE5F8
:1011C000DF0759F5F8018281882361F010928E01C2
:1011D0000E94DC1A90938C0180938B0180E20E9424
:1011E000BD0F8BC080918E01882321F080E20E9488
:1011F000C40F83C080918B0190918C010E94E81AEA
:10120000883C910598F780E20E94C40F88E20E9412
:101210005B0E88E20E94570F70C0C93D8CE5D8076D
:1012200008F056C0C63DECE5DE0761F5F8018281A5
:10123000882351F010928D010E94DC1A90938A014C
:101240008093890182E0CBCF0E94BD1885FF05C045
:1012500081E080938D0180938E0180918D018111B9
:101260000FC08091890190918A010E94E81A883C00
:10127000910530F486E20E945B0E86E20E94570FD1
:1012800082E0B5CFC73DDC4509F014CFF80182817B
:1012900081119CCF0E94BD1881FF05C081E0809321
:1012A0008D0180938E0180918E0181119FCF80915D
:1012B0008B0190918C010E94E81A883C910508F0FE
:1012C00095CF87E20E945B0E87E20E94570F8ECF78
:1012D000CB3D8CE5D80731F4F8018281882369F091
:1012E00080E009C0CC3DDC4509F0E4CEF801828104
:1012F000882319F082E00E944E2180E0DF91CF9197
:101300001F910F91FF90089508959EE0799FF0013D
:10131000112494E5899FE00DF11D1124E60FF11DC4
:10132000EE0FFF1FE456FE4F859194910895880FAC
:10133000991F88569E4FFC01859194910895CF93F3
:10134000DF930E9485090E94460BEC01811520E580
:10135000920708F040C0811530E4930708F01BC1E4
:10136000883E910508F5803E910508F08BC1883ACA
:10137000910578F4853A910508F09DC0813091057A
:1013800009F480C108F437C18430910508F07AC1AE
:1013900032C18D3B910508F499C0803C910508F459
:1013A0002AC1805C9109E9C0C11580E2D80758F4D0
:1013B000C11591E0D90708F065C1C03FD10508F417
:1013C0001AC1D0655FC1C11520E3D20708F0D9C0AA
:1013D000CE019F70D2C0811535E5930708F043C058
:1013E000C11584E5D80708F0EDC0C11592E5D9070D
:1013F00008F5C11521E5D20708F0D0C02C2F2370C5
:1014000081E090E002C0880F991F2A95E2F79C685E
:101410009E01E4E036952795EA95E1F72370922B3B
:10142000CF70C695C69530E2C39FE0011124C82B4A
:10143000D92B28C18C2F869586959E012370332742
:10144000C115D34508F0AFC090E2899FE001112497
:1014500081E090E002C0880F991F2A95E2F7C82B1F
:10146000D92BDC680FC1811529E5920780F481151D
:1014700038E5930708F0ABC0C11586E5D80708F03A
:10148000BAC0CF71DD27DC2FCC27D062FBC0C115DD
:101490009AE5D90708F4A0C0CE0190568115904274
:1014A00008F0A9C08D2F8F710E94C20BDD27D0627A
:1014B0008F71D82BE7C0853A910509F49FC0863A11
:1014C000910509F49EC0C3E8D0E4DCC0883A9105D8
:1014D00009F49AC0893A910509F499C08A3A9105AC
:1014E00009F498C08B3A910509F497C08C3A91059C
:1014F00009F496C08B3B910509F495C08C3B91058E
:1015000009F494C08D3A910509F493C0803B91058C
:1015100009F492C08E3A910509F491C08F3A910571
:1015200009F490C0813B910509F48FC0823B91057D
:1015300009F48EC0833B910509F48DC0843B91056D
:1015400009F48CC0853B910509F48BC0863B91055D
:1015500009F48AC0873B910509F489C0883B91054D
:1015600009F488C0893B910509F487C08A3B91053D
:1015700009F086C0CAE2D6E485C00E949709EC0152
:1015800081C0CE019927D3FF03C0EC01D86C7AC08B
:10159000EC01D06C77C0DF70D06A74C0DC2FCC2730
:1015A000C16FD06A6FC090E2899FE001112481E091
:1015B00090E002C0880F991F2A95E2F7C82BD92B1B
:1015C000DA6860C0DC2FCC27C46FD06A5BC0D82F2C
:1015D000CC27C06FD06A56C08C2F8F70806E90E081
:1015E000906A34E0D695C7953A95E1F7CF709C01A3
:1015F0003C2BE90147C0C0E0D0E044C0C1E8D0E4E2
:1016000041C0C2E8D0E43EC0C2EED4E43BC0C9EE63
:10161000D4E438C0CAEED4E435C0C5EBD4E432C05B
:10162000C6EBD4E42FC0C3EBD4E42CC0C4EBD4E4A9
:1016300029C0C7EBD4E426C0CCECD4E423C0CDEC65
:10164000D4E420C0C3E8D5E41DC0CAE8D5E41AC07C
:10165000C2E9D5E417C0C4E9D5E414C0C1E2D6E4B8
:1016600011C0C3E2D6E40EC0C4E2D6E40BC0C5E2AA
:10167000D6E408C0C6E2D6E405C0C7E2D6E402C09C
:10168000C0E0D4E4CE01DF91CF9108958238910576
:1016900049F1B0F48133910509F459C048F4893215
:1016A000910509F44FC08A32910509F455C0089597
:1016B0008533910509F441C08933910599F0089566
:1016C000833E910531F138F4803E910591F0823EE0
:1016D0009105A9F00895863E910501F1873E910597
:1016E00039F108952091770220FD3BC021FD39C0DA
:1016F00008958091770280FF34C089E341C08091D2
:10170000770282FF32C08091770284FF2CC080E094
:1017100037C08091770282FD28C0F5CF8091770293
:1017200083FF25C08091770284FDF1CF87EE28C02A
:101730008091770283FD1BC0F5CF8091770285FFF2
:1017400018C019C08091770285FF15C012C0809122
:10175000770286FF12C013C08091770286FF0FC008
:101760000CC080EE0DC083EE0BC082EE09C086EE89
:1017700007C085E305C089E203C081E301C08AE2B6
:1017800090E008959091770292FF0DC0282F287164
:10179000283019F4877F846006C0282F24712430F4
:1017A00011F48B7F886093FF0DC0282F287128319A
:1017B00019F4877E846106C0282F2471243111F426
:1017C0008B7E886194FD877E0895CF93DF93EC0133
:1017D000C13080E8D807C8F0FB0182818823A9F0D6
:1017E00080918F01811109C08CE090E00E94382621
:1017F0000E94090C81E080938F010E94100CCE01A1
:101800009F770E94D80C0E948C0C81E0DF91CF91D1
:10181000089580939001682F8CE090E00C94462608
:10182000E0910001F091010180818093700281FFBD
:1018300003C081EE0E94570F8091700285FF03C0A4
:1018400085EE0E94570F8091700280FF03C080EEEA
:101850000E94570F8091700284FF03C084EE0E94A3
:10186000570F8091700282FF03C082EE0E94570FD3
:101870008091700286FF03C086EE0E94570F809110
:10188000700283FF03C083EE0E94570F80917002A5
:1018900087FF03C087EE0E94570F8091900182302E
:1018A00001F1A8F48823C9F0813079F580EE0E9417
:1018B0005B0E81EE0E945B0E88E10E945B0E88E168
:1018C0000E94570F81EE0E94570F80EE1CC084309B
:1018D00081F08530D1F486EE01C082EE0E945B0E6D
:1018E00014C082EE0E945B0E87E50E945B0E87E5C6
:1018F0000AC086EE0E945B0E86EE0E94570F88E1BA
:101900000E945B0E88E10E94570F8FE39CE90197CC
:10191000F1F700C00000089580919001813049F0F6
:1019200030F0823021F0853051F486EE06C082EE30
:1019300004C08CE20E945B0E8CE20E94570F8091E3
:10194000700281FF03C081EE0E945B0E80917002E5
:1019500085FF03C085EE0E945B0E8091700280FFC0
:1019600003C080EE0E945B0E8091700284FF03C072
:1019700084EE0E945B0E8091700282FF03C082EEB3
:101980000E945B0E8091700286FF03C086EE0E946B
:101990005B0E8091700283FF03C083EE0E945B0E9A
:1019A0008091700287FF03C087EE0C945B0E089550
:1019B000FF920F931F93CF93DF938C01CCE0D0E085
:1019C000C8010C2E02C0969587950A94E2F7282F3D
:1019D0002F70F22E822F0E94B3070E945B0E8F2D74
:1019E0000E94B3070E94570F2497CC3F8FEFD80770
:1019F00039F7DF91CF911F910F91FF900895909348
:101A00009601809395010895E0919501F0919601DA
:101A1000309721F00190F081E02D099480E0089545
:101A2000E0919501F0919601309721F00280F381C9
:101A3000E02D09940895E0919501F0919601309779
:101A400021F00480F581E02D0994089520919301FF
:101A5000309194018217930771F0909394018093D1
:101A60009301E0919501F0919601309721F0068065
:101A7000F781E02D09940895209191013091920110
:101A80008217930771F09093920180939101E091F6
:101A90009501F0919601309721F00084F185E02DB9
:101AA0000994089508950C94520D81E008950E94C0
:101AB000D31A85B7806885BF85B7806885BF0E94C7
:101AC0007A040E94A71BE7E7F2E0808180688083A8
:101AD00008955F926F927F928F929F92AF92BF9282
:101AE000CF92DF92EF92FF920F931F93CF93DF93EA
:101AF000CDB7DEB72A970FB6F894DEBF0FBECDBFC5
:101B00000E94FC040E94550D811111C08FEF898342
:101B10008A831B820E94DC1A8160782F9D838C83CC
:101B200049815A816B818D810E94270E57C098E9A7
:101B3000C92E91E0D92E00E010E0AA24A394B12C84
:101B4000502E802F0E94B4053C01F601E190F190E7
:101B50006F01E826F926E114F10431F40F5F1F4FFD
:101B60000630110569F7D2CF8091410281FD0E94B4
:101B7000BD0520E030E04501022E02C0880C991C12
:101B80000A94E2F7C4018E219F21892B09F12E834B
:101B90005F826820792081E0672809F480E08887E7
:101BA0000E94DC1A8160782F9A8789874E815F8135
:101BB00068858A850E94270EF801EE0FFF1FE85600
:101BC000FE4F80819181882599259183808306C06D
:101BD0002F5F3F4F2E30310571F6C0CF0E94471E58
:101BE000109197010E94040D1817D9F00E94040D5E
:101BF000809397012A960FB6F894DEBF0FBECDBF33
:101C0000DF91CF911F910F91FF90EF90DF90CF90D8
:101C1000BF90AF909F908F907F906F905F900C944B
:101C2000C4072A960FB6F894DEBF0FBECDBFDF9172
:101C3000CF911F910F91FF90EF90DF90CF90BF90C9
:101C4000AF909F908F907F906F905F900895CF930B
:101C5000DF93CDB7DEB72B970FB6F894DEBF0FBE7C
:101C6000CDBF4F83588769877A878B87DE011196AE
:101C700086E0FD0111928A95E9F785E0FE0137962D
:101C800001900D928A95E1F749815A816B817C819F
:101C90008D819E810E946D152B960FB6F894DEBF44
:101CA0000FBECDBFDF91CF910895FC01808191815E
:101CB0000E942B180895882309F4F8C08238C1F4D3
:101CC0000E94040D81FDF2C069E3809100019091B2
:101CD00001010E94371A0E948A182FEF81EE94E0CA
:101CE000215080409040E1F700C0000069E319C036
:101CF0008338F9F40E94040D80FDD8C063E580911B
:101D00000001909101010E94371A0E948A182FEF5A
:101D100081EE94E0215080409040E1F700C0000047
:101D200063E580910001909101010E94421A0C9498
:101D30008A188438C1F40E94040D82FDB7C067E49C
:101D400080910001909101010E94371A0E948A1827
:101D50002FEF81EE94E0215080409040E1F700C0E9
:101D6000000067E4DECF9CEF980F913A40F4682FB3
:101D700080910001909101010E94371AD8CF90E222
:101D8000980F983050F4877091E001C0990F8A95B0
:101D9000EAF7892F0E94C018CACF9BE5980F9330AD
:101DA00070F4853A29F0863A31F482E890E005C073
:101DB00081E890E002C083E890E00C94260D98E55D
:101DC000980F953108F06EC0883A61F1893A69F14F
:101DD0008A3A71F18B3A79F18C3A81F18B3B89F136
:101DE0008C3B91F18D3A99F1803BA1F18E3AA9F1AA
:101DF0008F3AB1F1813BB9F1823BC1F1833BC9F12B
:101E0000843BD1F1853BD9F1863BE1F1873BE9F198
:101E1000883BF1F1893BF9F18A3B09F03FC08AE246
:101E200092E03EC082EE90E03BC089EE90E038C088
:101E30008AEE90E035C085EB90E032C086EB90E012
:101E40002FC083EB90E02CC084EB90E029C087EB9F
:101E500090E026C08CEC90E023C08DEC90E020C098
:101E600083E891E01DC08AE891E01AC082E991E020
:101E700017C084E991E014C081E292E011C083E2CE
:101E800092E00EC084E292E00BC085E292E008C0CE
:101E900086E292E005C087E292E002C080E090E036
:101EA0000C943C0D803F10F00C944F1D0895882336
:101EB00009F462C0823879F40E94040D81FF5CC08D
:101EC00069E380910001909101010E94371A0E94FC
:101ED0008A1869E310C08338B1F40E94040D80FFB2
:101EE0004BC063E580910001909101010E94371A77
:101EF0000E948A1863E580910001909101010E947F
:101F0000421A0C948A18843879F40E94040D82FFD6
:101F100033C067E480910001909101010E94371A5B
:101F20000E948A1867E4E7CF9CEF980F913A10F46B
:101F3000682FE1CF90E2980F983050F4877091E0CD
:101F400001C0990F8A95EAF7892F0E94C618D9CF48
:101F50009BE5980F933020F480E090E00C94260DE0
:101F600098E5980F953120F480E090E00C943C0DBA
:101F7000803F10F00C94B71D0895882321F00E9433
:101F8000C0180C948A180895882321F00E94C6185E
:101F90000C948A1808958F929F92BF92CF92DF92ED
:101FA000EF92FF920F931F93CF93DF9300D0CDB7A3
:101FB000DEB74C01472FFC01C580C2949FE0C922C7
:101FC000D280DD2031F079836A830E94DD186A8136
:101FD000498149836A830E94831849816A818823E1
:101FE00089F0DD2079F080E2860F883058F082E0B9
:101FF0000E946C180E948318BB24B394B8264981B0
:102000006A8101C0B12CE42EE2948FE0E822F12C29
:10201000F701E859FF4F0C941E26842F807F142F60
:102020001F70882311F01295107FDD20C1F011235D
:1020300009F4D6C180E2860F883010F0611105C026
:10204000812F6A830E94C01804C0812F6A830E9476
:10205000D0186A816A830E948A186A81C1C1862F5A
:102060006A830E94570F6A81112309F4DAC180E262
:10207000860F883010F0611104C0812F0E94C618AD
:1020800003C0812F0E94D6180E948A18CAC1842FCB
:10209000807F142F1F70803211F01295107F6623FD
:1020A00019F06130D9F024C0DD2079F0CC2049F05E
:1020B000F1E0CF1206C00E94F618812B0E94F018A2
:1020C000B0C10E94F618812B42C1CC2021F021E042
:1020D000C21609F4A6C10E94F3183EC1DD2029F002
:1020E00081E08C1508F49DC131C1C1109AC134C181
:1020F000DD2021F0CC2009F429C172C1CC2009F4E3
:102100002BC17FC1242F26952695237030E0211501
:10211000310521F02130310561F083C1DD2021F04E
:10212000862F942F937002C080E090E00E94260DCD
:1021300088C1DD2021F0862F942F937002C080E0AB
:1021400090E00E943C0D7DC1DD20F9F0653F51F02B
:10215000663F71F0643FA9F4809171029091720220
:1021600081600BC08091710290917202826005C003
:1021700080917102909172028460909372028093B8
:102180007102862F0E944F1D22C0653F51F0663FAD
:1021900091F0643FC9F480917102909172028E7F38
:1021A00005C080917102909172028D7F90937202AE
:1021B0008093710209C020917102309172022B7FCD
:1021C0003093720220937102862F0E94B71D0E94E5
:1021D0003C1E37C1842F837009F04EC0D1102DC131
:1021E000262F229526952770220F220F862F8F707B
:1021F000C82ED12CE12CF12C022E04C0CC0CDD1CFD
:10220000EE1CFF1C0A94D2F764FF10C06FE070E070
:1022100080E090E004C0660F771F881F991F2A9501
:10222000D2F7609570958095909503C060E070E05E
:10223000CB01242F26952695237030E022303105DE
:1022400069F02330310589F06C297D298E299F2979
:102250002130310571F00E94BE16EFC06C297D2936
:102260008E299F290E94D016E8C00E94BE16C70181
:10227000B6010E94AC16E1C0DD2019F0842F8170F8
:1022800001C08695882309F4D8C0262F229526956B
:102290002770220F220F862F8F70C82ED12CE12C91
:1022A000F12C022E04C0CC0CDD1CEE1CFF1C0A9489
:1022B000D2F764FF10C06FE070E080E090E004C0EF
:1022C000660F771F881F991F2A95D2F76095709522
:1022D0008095909503C060E070E0CB01242F269597
:1022E0002695237030E02230310569F02330310526
:1022F00089F06C297D298E299F292130310571F0C3
:102300000E946C179AC06C297D298E299F290E94F2
:102310007E1793C00E946C17C701B6010E945A171E
:102320008CC0062F10E0F801E05EF109E531F105FF
:1023300008F052C0E858FF4F0C941E26162F1F704D
:10234000842F8F71DD2031F00E940517812F0E94AC
:10235000BD0F67C00E942017812F0E94C40F61C06B
:10236000DD2039F0C1105DC0842F8F710E943F17AE
:1023700058C091E09C1508F454C0F6CFDD2039F028
:10238000842F8F710E9405174CC0DD20C9F3842F64
:102390008F710E94201745C0DD2029F0842F8F7196
:1023A0000E94F6163EC00E94F1163BC0DD2051F09F
:1023B000142F1F71812F0E94051763E0812F0E9447
:1023C00063182FC081E00E946C18E1E0EC1548F51D
:1023D00082E00E946C1825C0DD2031F0CC2081F213
:1023E000862F0E945B0E1DC0CC2089F2693349F410
:1023F000FFEF27EE83E0F15020408040E1F700C07E
:102400000000862F0E94570F0CC04F70C4010E941D
:10241000E8060E941A1615C04F70C4010E94840974
:1024200010C098E0E916F10441F05CF0FAE0EF1A10
:10243000F10822E0E216F10420F40E94040D0E944B
:10244000C407BB20F1F00E945F1880FD1AC0F401A0
:1024500012820E9459180E940517C4010E944F124F
:102460000E9459180F900F90DF91CF911F910F91FB
:10247000FF90EF90DF90CF90BF909F908F900C9443
:1024800020170F900F90DF91CF911F910F91FF9028
:10249000EF90DF90CF90BF909F908F9008950F9313
:1024A0001F93CF93DF93EC01288139818B819C812D
:1024B000892B31F03F3F11F080E003C02F3FE1F75F
:1024C00081E0811113C0CE010E94D607882371F0EC
:1024D000688179818A810E9436188C010E94901748
:1024E0000E94A916B801CE010E94CB0FDF91CF91B7
:1024F0001F910F9108950E94DD180E94ED188091A0
:102500000001909101010E944D1A0E948A180E94B8
:10251000DB1E0E943C1E80E090E00E94260D80E0C1
:1025200090E00C943C0D0E94CD180C947B120E94FC
:102530002B18E92FE295EF70F0E03297EE30F105BD
:10254000B8F4E357FF4F0C941E26803F59F018F45F
:10255000803E70F407C0843F59F404C0803E10F000
:10256000813F31F481E0089593FB882780F9089535
:1025700080E00895CF93DF9300D000D01F92CDB7B5
:10258000DEB70F900F900F900F900F90DF91CF91CB
:102590000895CF93DF9300D000D000D0CDB7DEB741
:1025A00026960FB6F894DEBF0FBECDBFDF91CF9158
:1025B00008951F93CF93DF93C091A50116E08091FA
:1025C000A601C81799F0D0E01C9FF0011D9FF00DE7
:1025D0001124E955FE4F40815181628173818481CC
:1025E00095810E94C9122196C770E9CFDF91CF91E2
:1025F0001F9108954091D7015091D8016091D90160
:102600007091DA018091DB019091DC010C94C91288
:10261000CF938091DC0182958F7009F05FC080912B
:10262000D901882309F45AC02091A501A091A601DF
:102630006091D7017091D8018091DA019091DB010E
:1026400031E06F3F09F030E0B32FC6E02A1709F4FC
:1026500045C0009721F07F3F21F44B2F03C041E09C
:1026600001C040E030E040FD35C0C29FF001C39F93
:10267000F00D1124E955FE4F418174132BC04081A8
:10268000641328C04281411125C0438154814817F9
:10269000590710F441505109481B590B483C51054A
:1026A000C8F48091DC018F7080618093DC0186E04A
:1026B000829FF001839FF00D1124E455FE4F80812D
:1026C0008F708061808387ED91E00E944F12CF91DF
:1026D0000C94D9122F5F3F4F2770B8CFCF91089538
:1026E000CF92DF92EF92FF920F931F93CF93DF93DE
:1026F000CDB7DEB762970FB6F894DEBF0FBECDBF81
:102700008C0185E0F801DE011D9601900D928A95FD
:10271000E1F7D8014C9111965C91119712966C914A
:1027200012971396ED90FC9014977091D701E09159
:10273000D8012091DA013091DB012115310531F00A
:10274000EF3F31F481E07F3F19F403C081E001C025
:1027500080E0B82FB170CB2E80FD6BC1D090D90135
:10276000DD2009F4F5C0F091DC01E216F30638F043
:10277000C701821B930B883C910548F09DC02095B2
:1027800030952E0D3F1D283C310508F095C08F2F48
:10279000807F09F052C0E51314C0741312C0D62E06
:1027A00061110FC0FF70F061F093DC010E94FA121A
:1027B00087ED91E00E944F128091DC01F801858342
:1027C0007CC1EF2831F05F3F31F481E04F3F19F4D5
:1027D00003C081E001C080E080FD03C081E0862766
:1027E00001C080E0F82FF170FF2E80FF1CC08091A7
:1027F000A5012091A60136E0821709F438C190E0C6
:10280000389FF001399FF00D1124E955FE4F718179
:10281000571306C07081471303C07281671303C04A
:1028200001968770E9CFD62E662309F446C18091C0
:10283000DC0181608093DC0155C0E51308C074138E
:1028400006C0611104C0D8011596FC93AEC04D8737
:102850005E878D859E856A8B0E9497126A89882380
:1028600029F1D62E662311F12091DC01822F829569
:102870008F7090E002970CF462C08091D701909124
:10288000D80198878F831986FB86EA862C87CE012C
:10289000079653C0E51741F14D875E878D859E856C
:1028A0006A8B0E9497126A89811130C0C8010E9408
:1028B0004F12DD24D39401C18F2F807F59F77E2DD5
:1028C000F98AE88A89890E94BA1287ED91E00E940C
:1028D0004F12E7EDF1E086E0DF011D928A95E9F7FE
:1028E0000E94FA12D12CE9C07413D6CF6111D4CF53
:1028F000D8011596FC93C8010E944F12E7EDF1E054
:1029000086E0DF011D928A95E9F7D7C0D62E6623AF
:1029100069F22091DC01822F82958F7090E00297FE
:1029200074F08091D7019091D8019A8389831B829A
:10293000FD82EC822E83CE0101960E944F1286E02A
:10294000F801A7EDB1E001900D928A95E1F78AC0F8
:10295000E216F30628F0C701821B930B9C0104C00A
:10296000209530952E0D3F1D283C310508F053C0B1
:10297000D62E662309F49ACFE5132CC074132AC00F
:102980008091DC0180FD1DC0982F92959F70C9F049
:10299000D80115968C9315979F3039F09F5F9295CB
:1029A000907F8F70892B15968C93C8010E944F12CF
:1029B00086E0F801A7EDB1E001900D928A95E1F76C
:1029C00053C086E0F801A7EDB1E001900D928A9521
:1029D000E1F773C04D875E878D859E850E949712B3
:1029E000882381F096E0F801A7EDB1E001900D9207
:1029F0009A95E1F78A8B0E9408130E94FA128A893D
:102A0000D82E5BC08091DC0181608093DC01C8011D
:102A10000E944F1252C07E2DF98AE88A89890E944D
:102A2000BA12E7EDF1E086E0DF011D928A95E9F741
:102A30001BC0662309F43ACF4D875E878D859E853E
:102A40000E949712D82E882309F430CF86E0F8012F
:102A5000A7EDB1E001900D928A95E1F787ED91E045
:102A60000E94550E0E9408130E94FA1226C04D873C
:102A70005E878D859E850E942B18292F22952F70A9
:102A800030E0223031052CF49F7041F0811106C0F6
:102A90000CC0243031052CF49F7049F4805E8830DE
:102AA00020F0C8010E944F12CF2CDC2C06C0D801A8
:102AB00015969C91907F91F7F8CF8D2D62960FB669
:102AC000F894DEBF0FBECDBFDF91CF911F910F9164
:102AD000FF90EF90DF90CF9008951F93CF93DF93F7
:102AE000CDB7DEB72C970FB6F894DEBF0FBECDBFC3
:102AF0004F83588769877A878B879C87CE01079693
:102B00000E9470138823C1F02F8138858A859B85A8
:102B1000892B31F03F3F11F080E003C02F3FE1F7F8
:102B200081E0811147C04F81588569857A858B8501
:102B30009C850E94C9123EC086E0FE013796DE01E8
:102B4000119601900D928A95E1F7FF81E8854A85FB
:102B50005B854115510531F0EF3F31F481E0FF3FD6
:102B600019F403C081E001C080E080FD23C0209102
:102B7000A60130E0C9010196877099276091A501EF
:102B800070E086179707F1F1F983EA835D834C8340
:102B900096E0929FD001939FB00D1124A955BE4F8E
:102BA000FE01319601900D929A95E1F78093A6016E
:102BB0000E94D91216E08091A5019091A601891773
:102BC00079F1189FC001112489559E4F0E947013FE
:102BD000882331F1E091A5011E9FF0011124E955F0
:102BE000FE4F4081518162817381848195810E9471
:102BF000C9128091A50190E0019687709927809372
:102C0000A501D9CF0E9493121092A6011092A5019E
:102C1000E7EDF1E086E0DF011D928A95E9F7CACF82
:102C20002C960FB6F894DEBF0FBECDBFDF91CF91CB
:102C30001F910895EF92FF920F931F93CF93DF930D
:102C4000FC01009709F46FC0F12CEE24E394EF012E
:102C500021968491843740F4843008F055C0813047
:102C600081F0823021F15FC0853709F447C0C0F19F
:102C70009CE7980F903708F056C08F770E94570F47
:102C800045C08F010E5F1F4FFE01849190E2980FA7
:102C9000983050F48770FE2D01C0FF0F8A95EAF737
:102CA0008F2F0E94E01815C00E945B0E14C08F0188
:102CB0000E5F1F4FFE01849190E2980F983068F4E8
:102CC0008770FE2D01C0FF0F8A95EAF78F2F0E94B3
:102CD000E6180E948A18E80119C00E94570FFBCF1E
:102CE000CF010296FE01C491CC2361F0EFE9FFE031
:102CF0003197F1F700C00000C150F6CFCF01029626
:102D0000FE01F490EC0102C00E945B0E8F2D88231F
:102D100041F0EFE9FFE03197F1F700C0000081508A
:102D2000F6CFFE0194CFDF91CF911F910F91FF90CD
:102D3000EF90089508950C949A160E949B16609344
:102D400018027093190280931A0290931B020C943C
:102D50007B1208950C949D160F931F9300911802F7
:102D60001091190220911A0230911B02602B712BD5
:102D7000822B932B1F910F910C949D160F931F93F1
:102D8000009118021091190220911A0230911B0231
:102D900060237123822393231F910F910C949D161E
:102DA0000F931F93009118021091190220911A029B
:102DB00030911B0260277127822793271F910F9163
:102DC0000C949D1608950C94E2160E94E3166093ED
:102DD00014027093150280931602909317020C94BC
:102DE0007B1260E070E0CB010C94E51641E050E00E
:102DF00060E070E004C0440F551F661F771F8A957E
:102E0000D2F7CB01BA010C94E51641E050E060E046
:102E100070E004C0440F551F661F771F8A95D2F7D4
:102E20008091140290911502A0911602B0911702A0
:102E3000482B592B6A2B7B2BCB01BA010C94E5163E
:102E400041E050E060E070E004C0440F551F661F91
:102E5000771F8A95D2F7409550956095709580912F
:102E6000140290911502A0911602B0911702482306
:102E700059236A237B23CB01BA010C94E51641E068
:102E800050E060E070E004C0440F551F661F771FDC
:102E90008A95D2F78091140290911502A0911602A2
:102EA000B0911702482759276A277B27CB01BA011F
:102EB0000C94E5160F931F930091140210911502C4
:102EC0002091160230911702602B712B822B932BCD
:102ED0001F910F910C94E5160F931F93009114020C
:102EE0001091150220911602309117026023712370
:102EF000822393231F910F910C94E5160F931F9338
:102F000000911402109115022091160230911702BF
:102F100060277127822793271F910F910C94E51644
:102F200008952EE0929F800D1124482F46954695D6
:102F300046958770B1E001C0BB0F8A95EAF785E03E
:102F4000489FA001112443525E4F80E090E070E062
:102F5000FA01E80FF91FA0819B01082E02C03695E7
:102F600027950A94E2F72170332721952A272B23EE
:102F70002A27208301968530910551F708952EE088
:102F8000929F800D1124682F669566956695982FFF
:102F9000977085E0689FB001112463527E4F40E036
:102FA00050E080E0FB01E40FF51F208130E0092EA6
:102FB00002C0369527950A94E2F721703327042E34
:102FC00001C0220F0A94EAF7822B4F5F5F4F453012
:102FD000510541F70895CF92DF92EF92FF920F9340
:102FE0001F93CF93DF93EC01C0901802D090190289
:102FF000E0901A02F0901B02809114029091150249
:10300000A0911602B0911702C82AD92AEA2AFB2AEF
:103010000FE110E0B701A601002E04C07695679578
:10302000579547950A94D2F740FD05C00150110904
:1030300088F780E007C0BE01802F0E949F0901979A
:10304000A9F3802FDF91CF911F910F91FF90EF9007
:10305000DF90CF900895CF93DF93EC010E94EB17A0
:10306000BE010E949F09DF91CF9108951F93CF93D6
:10307000DF93EB019091A401992321F0CB010E94F1
:103080002B1813C0882349F0CB010E94EB17182F8F
:10309000682FCE010E94911704C0CB010E94BF1778
:1030A000182FBE01812F0E949F09DF91CF911F91A0
:1030B000089580911C028595859585950895809148
:1030C0001C028770089598E0899F90011124622B5B
:1030D00060931C020C94051740911C028095842378
:1030E00080931C02982F977069F450E0282F3327A3
:1030F00027FD30954217530729F0859585958595CD
:103100000C942017089590911C02977081E009F4A7
:1031100080E00895E0910001F0910101809140026A
:103120008083E0910001F0910101808190913F0244
:10313000892B8083E0910001F091010180819091C1
:103140003E02892B808390911D02992381F0E091AA
:103150000001F09101018081892B80838091000121
:10316000909101010E94D019811110921D0280914D
:103170000001909101010C94100D8091400208957E
:1031800090914002982B90934002089580959091E1
:1031900040029823909340020895109240020895AF
:1031A00090913F02982B90933F02089580959091C3
:1031B0003F02982390933F02089510923F02089592
:1031C00090913E02982B90933E02089580959091A5
:1031D0003E02982390933E02089510923E02089575
:1031E00080931D02089510921D02089580911D0282
:1031F0000895CF92DF92EF92FF920F931F936C018D
:10320000EE24FF24C114D104E104F10421F46B0184
:103210007C0180E001C080E133272F2D1E2D0D2D74
:10322000011511052105310519F0885F6801790143
:1032300097018601A4E03695279517950795AA95DD
:10324000D1F7011511052105310519F08C5F6801D1
:10325000790197018601F2E0369527951795079534
:10326000FA95D1F7011511052105310519F08E5F89
:1032700068017901B701A60176956795579547953D
:10328000452B462B472B09F08F5F1F910F91FF9025
:10329000EF90DF90CF90089580E090E00E9440266C
:1032A00021E08D3E9E4F09F020E0822F089580E0BE
:1032B00090E00E94402621E0019609F020E0822F54
:1032C000089582E090E00C943826682F82E090E028
:1032D0000C94462683E090E00C943826682F83E017
:1032E00090E00C94462684E090E00C943826682FF9
:1032F00084E090E00C944626AB01BC018FE090E0A6
:103300000C945826AB01BC0183E190E00C94582644
:1033100060E070E0CB010C94821960E070E0CB01BA
:103320000E947C190C9488196DEE7EEF80E090E08D
:103330000E94642660E082E090E00E94462660E001
:1033400083E090E00E944626109218021092190223
:1033500010921A0210921B0260E084E090E00E943A
:10336000462660E085E090E00E94462660E086E028
:1033700090E00E9446266FEF87E090E00E9446268C
:1033800040E050E0BA0188E090E00E94582660E0FA
:103390008DE090E00E9446260C948D190C949419AF
:1033A00020E030E040E0FC01E20FF31F51815111B9
:1033B0004F5F2F5F3F4F2F313105A9F7842F0895BD
:1033C00020E030E04FEFFC01E20FF31F528156176F
:1033D00099F04F3F19F4511101C0422F2F5F3F4F19
:1033E0002E31310581F74F3F39F0FC01E40FF11D1B
:1033F00047FDFA9562830895089520E030E0FC01CE
:10340000E20FF31F4281461301C012822F5F3F4F2C
:103410002E313105A1F70895262F2695269526955C
:103420002F3170F4FC01E20FF11D677021E030E0F4
:10343000062E01C0220F0A94EAF78181822B818334
:103440000895262F2695269526952F3178F4FC0190
:10345000E20FF11D677021E030E0062E01C0220F5F
:103460000A94EAF7209581812823218308952091E9
:103470001101222329F02091770227FD0C940C1AC8
:103480000C94E01920911101222329F02091770258
:1034900027FD0C94211A0C94FD1920E030E0FC016A
:1034A000E20FF31F11822F5F3F4F2F313105B9F724
:1034B000089508950C94591A0E945A1A80917D0219
:1034C000843031F11092420220E488E190E00FB69E
:1034D000F894A895809360000FBE2093600080E070
:1034E0000E94C4070E945A1A83B7817F846083BFF9
:1034F00083B7816083BF7894889583B78E7F83BFBD
:1035000088E10FB6F89480936000109260000FBEBF
:1035100008950895CF930E9499040E94FC040E948C
:10352000891AC0E08C2F0E94B405892B29F4CF5F43
:10353000C630C1F780E001C081E0CF9108950895C1
:103540000C949F1A0E9493120E94040D0E94C407BB
:103550000C94A01A1F920F920FB60F9211248F9302
:103560009F93AF93BF9380914202811113C08091CA
:10357000730290917402A0917502B0917602419607
:10358000A11DB11D8093730290937402A0937502E4
:10359000B0937602BF91AF919F918F910F900FBE24
:1035A0000F901F90189582E084BD93E095BD9AEF2F
:1035B00097BD80936E0008952FB7F89480917302A1
:1035C00090917402A0917502B09176022FBF089578
:1035D000CF92DF92EF92FF920F931F932FB7F89441
:1035E000409173025091740260917502709176025D
:1035F0002FBF6A017B01EE24FF248C0120E030E024
:10360000C016D106E206F30610F441505109481BDA
:10361000590BCA011F910F91FF90EF90DF90CF904F
:10362000089578941F920F920FB60F9211248F93E2
:103630009F93AF93BF938091730290917402A09176
:103640007502B09176020196A11DB11D809373029F
:1036500090937402A0937502B0937602BF91AF91DC
:103660009F918F910F900FBE0F901F90189581E042
:103670008093E00080E28093D8001092C9008FE12F
:103680009EE40197F1F700C0000087E090EBDC01B9
:103690008093860290938702A0938802B093890258
:1036A0002CE088E190E00FB6F894A8958093600034
:1036B0000FBE20936000FFCFBF92CF92DF92EF92B8
:1036C000FF920F931F93CF93DF93B12C01E010E093
:1036D000E82EF12C8B2D0E94B4056C01C0E0D0E0E7
:1036E00098010C2E02C0220F331F0A94E2F72C21FE
:1036F0003D21232B29F42196CE30D10589F70AC02C
:103700006C2F7B2D80E00E948509E816F90699F759
:1037100081E005C0B39486E0B812DCCF80E0DF9191
:10372000CF911F910F91FF90EF90DF90CF90BF90BE
:103730000895CF93C82F8CE20E945C1B882321F050
:103740008C2FCF910C945C1B80E0CF910895CF9388
:103750000E944C19811102C00E94CE19C5E6C150C9
:1037600049F00E94FC048FE39CE90197F1F700C047
:103770000000F5CF89E20E94991B81110DC18AE2F8
:103780000E94991B81110E94CE1985E00E94991B0D
:1037900081110E94371B0E9461198093410287E0CA
:1037A0000E94991B882399F18BE10E94991B882321
:1037B00051F09091410291FB882780F921E0822706
:1037C00080FB91F922C08EE00E94991B882351F062
:1037D0009091410292FB882780F921E0822780FBAB
:1037E00092F913C080E10E94991B909141028823B5
:1037F00041F093FB882780F921E0822780FB93F931
:1038000004C0892F809580FB90F9909341028091AC
:1038100041020E9465190E94731990E0909378020A
:103820008093770280EE0E94991B882341F080915B
:103830007702982F909590FB80F98093770289E327
:103840000E94991B882359F09091770291FB882759
:1038500080F921E0822780FB91F99093770282EE34
:103860000E94991B882359F09091770292FB882738
:1038700080F921E0822780FB92F99093770286EE0F
:103880000E94991B882359F09091770293FB882717
:1038900080F921E0822780FB93F99093770283EEF1
:1038A0000E94991B882359F09091770294FB8827F6
:1038B00080F921E0822780FB94F99093770285E3D9
:1038C0000E94991B882359F09091770295FB8827D5
:1038D00080F921E0822780FB95F99093770281E3BC
:1038E0000E94991B882359F09091770296FB8827B4
:1038F00080F921E0822780FB96F99093770281E19D
:103900000E94991B882359F09091770297FB882792
:1039100080F921E0822780FB97F9909377028091CC
:1039200077020E94771987E20E94991BC82F8EE1C7
:103930000E94991B8111C2608FE10E94991B811125
:10394000C46080E20E94991B8111C86081E20E94DC
:10395000991B8111C06182E20E94991B8111C06292
:1039600083E20E94991B8111C06484E20E94991B2A
:10397000882311F0C06802C0CC2329F08C2F0E944C
:103980006E196C2F03C00E946A19682F70E080E0E6
:1039900090E0CF910C94AA16CF91089580914602A1
:1039A00080FF0BC06091050185E0689FB001112484
:1039B00075956795759567952AC081FF09C06091D7
:1039C000050185E0689FB0011124759567951FC0BA
:1039D00082FF07C06091050185E0689FB001112456
:1039E00016C0409147024423C9F060910401461774
:1039F00088F72091050185E0289F90011124429FBE
:103A0000C001439F900D112470E00E940A26603887
:103A1000710540F46115710539F002C065E070E090
:103A2000862F08958FE7089581E0089580914602DA
:103A300080FF08C06091030170E0759567957595EA
:103A4000679521C081FF06C06091030170E0759504
:103A5000679519C082FF04C06091030170E010C037
:103A6000809147028823C1F0609102018617A0F778
:103A700090910301989FC001112470E00E940A26D2
:103A80006038710528F46115710521F0862F0895BD
:103A90008FE7089581E0089561E070E0F4CF803F02
:103AA00021F40E94CE1C819504C0813F29F40E941C
:103AB000CE1C80934A020895823F21F40E94CE1CBE
:103AC000819504C0833F29F40E94CE1C8093490253
:103AD0000895893F19F40E94161D05C08A3F31F4EC
:103AE0000E94161D819580934B0208958B3F21F40F
:103AF0000E94161D819504C08C3F29F40E94161D5A
:103B000080934C020895843F21F4809148028160A3
:103B100017C0853F21F480914802826011C0863F22
:103B200021F48091480284600BC0873F21F480918A
:103B30004802886005C0883F31F480914802806166
:103B40008093480208958D3F21F480914602816060
:103B50000BC08E3F21F480914602826005C08F3FEA
:103B600029F4809146028460809346020895803F44
:103B700039F480914A0287FF6CC010924A0269C0F2
:103B8000813F29F480914A021816BCF362C09091DB
:103B90004902823F29F497FF5CC01092490259C044
:103BA000833F19F41916CCF354C0893F41F4809136
:103BB0004B0218160CF04DC010924B024AC08A3FBF
:103BC00029F480914B0287FF44C0F6CF8B3F39F434
:103BD00080914C0287FF3DC010924C023AC08C3F4E
:103BE00029F480914C021816BCF333C0843F21F4B1
:103BF000809148028E7F17C0853F21F48091480252
:103C00008D7F11C0863F21F4809148028B7F0BC0CD
:103C1000873F21F480914802877F05C0883F31F4B7
:103C2000809148028F7E8093480213C08D3F21F41B
:103C3000809146028E7F0BC08E3F21F48091460218
:103C40008D7F05C08F3F29F4809146028B7F809342
:103C500046028091490281110EC080914A02811171
:103C60000AC080914B02811106C080914C028111E3
:103C700002C010924702089588E492E00E941B0D52
:103C80000E94DC1A909344028093430208951F938C
:103C9000CF93DF9380914302909144020E94E81AEF
:103CA00040914702442321F02091060130E006C0F4
:103CB000209145025AE0259F900111248217930715
:103CC00008F475C08091490210914A02D0914B02CC
:103CD000C0914C02811107C0111105C0D11103C060
:103CE000CC2309F464C04F3F19F04F5F4093470263
:103CF000181624F40E94CE1C809349028091490238
:103D000087FF05C00E94CE1C819580934902111641
:103D100024F40E94CE1C80934A0280914A0287FFBD
:103D200005C00E94CE1C819580934A0220914902D1
:103D30002223D1F040914A024423B1F055EB2503F0
:103D400090011124311102C081E001C0832F8093C2
:103D5000490225EB4203C0011124911102C081E008
:103D600001C0892F80934A021D1624F40E94161D5B
:103D700080934B0280914B0287FF05C00E94161D65
:103D8000819580934B021C1624F40E94161D80938B
:103D90004C0280914C0287FF05C00E94161D819540
:103DA00080934C02DF91CF911F910C943C1EDF91C8
:103DB000CF911F910895E8E4F2E085E0DF011D92C4
:103DC0008A95E9F710924702109246020895809171
:103DD0006D0208950F931F93CF93DF9300D01F922E
:103DE000CDB7DEB78C010E945E21823011F08430A5
:103DF00019F583E089831B830A838093E9008FEFA1
:103E00009091E800815095FD06C095ED9A95F1F7E7
:103E100000008111F5CF8091E80085FF0DC040E0E2
:103E200050E063E070E0CE0101960E947B2180911A
:103E3000E8008E778093E8000F900F900F90DF914D
:103E4000CF911F910F910895CF93DF9300D01F92D0
:103E5000CDB7DEB720917D02243031F522E02983F1
:103E6000805891099B838A8383E08093E9008FEFD8
:103E70009091E800815095FD06C095ED9A95F1F777
:103E800000008111F5CF8091E80085FF0DC040E072
:103E900050E063E070E0CE0101960E947B218091AA
:103EA000E8008E778093E8000F900F900F90DF91DD
:103EB000CF910895CF93DF93EC010E945E21823071
:103EC00011F08430F9F482E08093E9008FEF909153
:103ED000E800815095FD06C095ED9A95F1F7000038
:103EE0008111F5CF8091E80085FF0CC040E050E0E3
:103EF00065E070E0CE010E947B218091E8008E7722
:103F00008093E800DF91CF910895CF93DF93EC0188
:103F10000E945E21823019F0843009F047C0809100
:103F200011018823E1F08091770287FF18C084E0B7
:103F30008093E9008FEF9091E800815095FD06C0D5
:103F400095E19A95F1F700008111F5CF8091E80095
:103F500085FF2CC040E050E060E270E017C081E0D7
:103F60008093E9008FEF9091E800815095FD06C0A5
:103F700095ED9A95F1F700008111F5CF8091E80059
:103F800085FF14C040E050E068E070E0CE010E9480
:103F90007B218091E8008E778093E80080E2FE012B
:103FA000ADE4B2E001900D928A95E1F7DF91CF91F7
:103FB000089580917C02811109C00E940D230E9406
:103FC0006A238091E20084608093E2000895109259
:103FD0007C020895089508950C94A21A42E061ECC1
:103FE00081E00E94872242E061EC82E00E94872209
:103FF00042E061EC83E00E94872242E261EC84E0CF
:104000000C94872280917F02833009F455C030F4EC
:10401000813071F0823009F48EC008958A3009F43D
:104020007AC08B3009F460C0893009F09CC020C090
:1040300080917E02813A09F096C08091E800877FE6
:104040008093E8008091820290918302892B21F075
:1040500060E080E090E003C060E28DE492E070E018
:104060000E94C4218091E8008B778093E800089536
:1040700080917E02813209F076C080918202909117
:104080008302009719F0039709F06DC08091E80052
:10409000877F8093E8008091E80082FD05C08091D1
:1040A0007D028111F8CF5FC08091F10080936D0295
:1040B0008091E8008B7753C080917E02813A09F0AD
:1040C00052C08091820290918302892B09F04BC0EB
:1040D0008091E800877F8093E8008091E80080FF6E
:1040E000FCCF8091110136C080917E028132D9F5DA
:1040F0008091820290918302892BA9F58091E8003A
:10410000877F8093E8000E94BC2280918002809388
:1041100011010C94931280917E02813221F58091DD
:10412000E800877F8093E8000E94BC228091810292
:1041300080936E02089580917E02813AA1F480916D
:10414000E800877F8093E8008091E80080FFFCCF43
:1041500080916E028093F1008091E8008E778093C9
:10416000E8000C94BC22089584B7877F84BF88E15F
:104170000FB6F89480936000109260000FBE80E844
:1041800080936100109261000E94530D0E940D23E4
:104190000E946A238091E20084608093E200789418
:1041A0000E94ED250E94570D87E091E00E94FF0CD0
:1041B00080917D02853069F40E945C1A80917B02B7
:1041C0008823B1F30E948A1A882391F30E94652103
:1041D000EFCF0E94690DECCF0C94EE20292F3327EE
:1041E00023303105A9F06CF42130310509F448C0C1
:1041F0002230310509F049C08DE690E026E136E035
:1042000048C021323105F9F02232310549F13DC073
:1042100099278130910571F02CF4892BB1F5E2E1F9
:10422000F6E00DC08230910541F0039771F5E4EEA0
:10423000F5E005C0EEEFF5E002C0EAEEF5E08491AE
:1042400090E09F0126C064307105F8F4FB01EE0F89
:10425000FF1FE25EFE4F2081318189E090E019C0AE
:104260006430710590F4FB01EE0FFF1FEA5EFE4F14
:1042700020813181FB01EE5EFE4F808190E009C01C
:1042800082E190E023E836E004C080E090E020E0A6
:1042900030E0FA013183208308950895CF93C82F29
:1042A0000E944D21C0936F02CF91089580917D02AD
:1042B000843011F482E0089581E0089580916F02C6
:1042C000811102C00C945621089580E189BD82E1DC
:1042D00089BD09B400FEFDCF8091D8008F7D809309
:1042E000D8008091E00082608093E0008091E0003F
:1042F00081FDFCCF0895CF92DF92EF92FF920F9352
:104300001F93CF93DF937C018B01EA010E94DD2292
:10431000811131C0209731F088819981081B190BD8
:10432000E80EF91EC12CD12C0115110519F180914F
:10433000E80085FD14C08091E8008E778093E80046
:10434000209741F0888199818C0D9D1D99838883E8
:1043500085E011C00E94DD22882331F30CC0F701F3
:1043600081917F018093F10001501109FFEFCF1A75
:10437000DF0ADACF80E0DF91CF911F910F91FF909C
:10438000EF90DF90CF9008952091840230918502C4
:104390002617370748F06115710539F42091E800B8
:1043A0002E772093E80001C0B901FC0120E06115DF
:1043B0007105B9F180917D02882309F440C08530F0
:1043C00009F43FC08091E80083FD3DC08091E80082
:1043D00082FF06C08091E80082FF26C080E0089539
:1043E0008091E80080FFE3CF2091F3008091F200FC
:1043F00090E0922B6115710551F08830910538F4E9
:1044000021912093F100615071090196F3CF21E0D1
:10441000089709F020E08091E8008E778093E8000B
:10442000C6CF2111C7CFD6CF80917D02882339F026
:10443000853039F08091E80083FFCCCF04C082E062
:10444000089583E0089581E00895209184023091D9
:1044500085022617370748F06115710539F4209158
:10446000E8002E772093E80001C0B901FC0120E0AC
:1044700061157105C1F180917D02882309F441C065
:10448000853009F440C08091E80083FD3EC08091F2
:10449000E80082FF06C08091E80082FF27C080E02C
:1044A00008958091E80080FFE3CF2091F300809190
:1044B000F20090E0922B6115710559F0883091055A
:1044C00040F424912093F1003196615071090196D6
:1044D000F2CF21E0089709F020E08091E8008E7784
:1044E0008093E800C5CF2111C6CFD5CF80917D0242
:1044F000882339F0853039F08091E80083FFCBCFF5
:1045000004C082E0089583E0089581E00895982F23
:10451000973058F59093E900981739F07091EC00B6
:104520002091ED005091F00003C0242F762F50E031
:1045300021FF19C03091EB003E7F3093EB003091AA
:10454000ED003D7F3093ED003091EB003160309312
:10455000EB007093EC002093ED005093F00020915D
:10456000EE0027FF07C09F5FD3CF8F708093E900D5
:1045700081E0089580E0089580917E0287FD05C066
:104580008091E80080FF0EC012C08091E80082FD9B
:1045900005C080917D028111F8CF08958091E800D7
:1045A0008B7708C080917D028111EACF08958091B8
:1045B000E8008E778093E80008958091E400909160
:1045C000E50045E62091EC0020FF21C02091E800A5
:1045D00020FD21C020917D02222389F0253089F021
:1045E0002091EB0025FD0FC02091E4003091E50003
:1045F0002817390739F3415041F0C901E3CF82E070
:10460000089583E0089581E0089584E0089520915D
:10461000E80022FFDFCF80E008950E947B230E9404
:104620008323E0EEF0E0808181608083E8EDF0E0BC
:1046300080818F77808319BCA7EDB0E08C918E7F4D
:104640008C9380818F7E808310927C0208950F93DB
:104650001F93CF93DF930E947B230E948323C8ED97
:10466000D0E088818F77888388818068888388817B
:104670008F7D888319BC10927D021092790210926E
:104680007B0210927A0200EE10E0F80180818B7FAD
:10469000808388818160888342E060E080E00E94BE
:1046A0008722E1EEF0E080818E7F8083E2EEF0E011
:1046B000808181608083808188608083F80180812F
:1046C0008E7F8083888180618883DF91CF911F9165
:1046D0000F910895E8EDF0E080818F7E8083E7ED13
:1046E000F0E080818160808384E082BF81E08093FC
:1046F0007C020C942723E8EDF0E080818E7F80839C
:104700001092E20008951092DA001092E1000895EC
:104710001F920F920FB60F9211242F933F934F9336
:104720005F936F937F938F939F93AF93BF93EF9319
:10473000FF938091E10082FF0BC08091E20082FF35
:1047400007C08091E1008B7F8093E1000E94EC25FF
:104750008091DA0080FF1FC08091D80080FF1BC0CD
:104760008091DA008E7F8093DA008091D90080FFFB
:104770000DC080E189BD82E189BD09B400FEFDCF95
:1047800081E080937D020E94D91F05C019BC109260
:104790007D020E94E71F8091E10080FF19C0809197
:1047A000E20080FF15C08091E2008E7F8093E200DE
:1047B0008091E20080618093E2008091D800806265
:1047C0008093D80019BC85E080937D020E94EB1F86
:1047D0008091E10084FF30C08091E20084FF2CC012
:1047E00080E189BD82E189BD09B400FEFDCF8091E1
:1047F000D8008F7D8093D8008091E1008F7E8093D8
:10480000E1008091E2008F7E8093E2008091E200DF
:1048100081608093E20080917902882311F084E026
:1048200007C08091E30087FF02C083E001C081E000
:1048300080937D020E94EC1F8091E10083FF29C0DC
:104840008091E20083FF25C08091E100877F809303
:10485000E10082E080937D02109279028091E10074
:104860008E7F8093E1008091E2008E7F8093E20052
:104870008091E20080618093E20042E060E080E0AD
:104880000E9487228091F00088608093F0000E944F
:10489000EA1FFF91EF91BF91AF919F918F917F910F
:1048A0006F915F914F913F912F910F900FBE0F909D
:1048B0001F9018951F920F920FB60F9211242F93ED
:1048C0003F934F935F936F937F938F939F93AF9398
:1048D000BF93CF93EF93FF93C091E900CF70809186
:1048E000EC001092E9008091F000877F8093F00047
:1048F00078940E9496241092E9008091F0008860DC
:104900008093F000C093E900FF91EF91CF91BF91A8
:10491000AF919F918F917F916F915F914F913F9157
:104920002F910F900FBE0F901F9018951F93CF934C
:10493000DF93CDB7DEB7AA970FB6F894DEBF0FBEF0
:10494000CDBFEEE7F2E08091F100819322E0E638FE
:10495000F207C9F70E9402208091E80083FF24C17A
:1049600020917E0230917F02832F90E08A30910562
:1049700008F01AC1FC01E556FF4F0C941E262038A2
:1049800021F0223809F010C108C080917A0290917C
:104990007B02992389F082600FC0809182028F7020
:1049A000873008F001C18093E9008091EB0085FB1E
:1049B000882780F91092E9009091E800977F909302
:1049C000E8008093F1001092F100CCC0822F8D7F1F
:1049D00009F0EAC0222319F0223061F0E5C080918D
:1049E0008002813009F0E0C0333009F080E080932C
:1049F0007B022AC080918002811126C02091820210
:104A00002F708FEF820F863008F0CEC02093E90020
:104A10008091EB0080FF18C08091EB00333011F4DF
:104A2000806210C080618093EB0081E090E001C063
:104A3000880F2A95EAF78093EA001092EA008091A5
:104A4000EB0088608093EB001092E9008091E80011
:104A5000877F8093E8000E94BC22A6C02111A4C0D9
:104A6000109180021F778091E3008078812B8093E2
:104A7000E3008091E800877F8093E8000E94BC22D9
:104A80008091E80080FFFCCF8091E30080688093F4
:104A9000E300112311F083E001C082E080937D02E6
:104AA00083C02058223008F07FC08091800290910E
:104AB00081028C3D23E0920779F583E08A838AE2C4
:104AC00089834FB7F894DE01139620E03EE051E26F
:104AD000E32FF0E050935700E49120FF03C0E295EC
:104AE000EF703F5FEF708E2F90E0EA3010F0C796C6
:104AF00001C0C0968D939D932F5F243149F74FBF1E
:104B00008091E800877F8093E8006AE270E0CE0140
:104B100001960E94C42115C06091820270918302A7
:104B2000AE014F5F5F4F0E94EC200097E9F12091AA
:104B3000E800277F2093E800BC0189819A810E94C8
:104B400025228091E8008B778093E8002DC02038E3
:104B500059F58091E800877F8093E8008091790281
:104B60008093F1008091E8008E7773CF21111CC0F3
:104B7000909180029230C0F48091E800877F80930A
:104B8000E800909379020E94BC2280917902811101
:104B900004C08091E30087FF02C084E001C081E08F
:104BA00080937D020E94EE1F8091E80083FF0AC07F
:104BB0008091E800877F8093E8008091EB0080621D
:104BC0008093EB00AA960FB6F894DEBF0FBECDBF60
:104BD000DF91CF911F9108950895CF9380917D0229
:104BE0008823B1F08091E9008F709091EC0090FFE4
:104BF00002C090E801C090E0C92FC82B1092E900D4
:104C00008091E80083FD0E949624CF70C093E90054
:104C1000CF91089597FB072E16F4009407D077FDE7
:104C200009D00E94242607FC05D03EF4909581957A
:104C30009F4F0895709561957F4F0895EE0FFF1F68
:104C40000590F491E02D0994AA1BBB1B51E107C00C
:104C5000AA1FBB1FA617B70710F0A61BB70B881F0C
:104C6000991F5A95A9F780959095BC01CD0108959B
:104C7000F999FECF92BD81BDF89A992780B5089524
:104C8000A8E1B0E042E050E00C946C26262FF999A0
:104C9000FECF92BD81BDF89A019700B4021639F09B
:104CA0001FBA20BD0FB6F894FA9AF99A0FBE08956C
:104CB0000396272F0E9447260E944626252F0E94F2
:104CC0004726242F0C9447260196272F0E9447261B
:104CD0000C944626DC01CB01FC01F999FECF06C0FD
:104CE000F2BDE1BDF89A319600B40D9241505040AA
:084CF000B8F70895F894FFCF16
:104CF8001E0228083C0714E71E851F5A1F241FEAB6
:104D08001E01404D363951070407CE069506280680
:064D180041065A06730675
:00000001FF
